:100000000C942A000C943C000C943C000C943C0092
:100010000C943C000C943C000C943C000C943C0070
:100020000C943C000C94BB010C943C000C943C00E0
:100030000C943C000C943C000C946A010C943C0021
:100040000C943C000C947F000C943C000C943C00FD
:100050000C943C0011241FBECFE5D4E0DEBFCDBF21
:1000600010E0A0E6B0E001C01D92AF39B107E1F7A2
:100070000E94AA010C9443030C94000084E082B90E
:1000800085E486BF089580918100813019F0843025
:10009000A9F518C08091630080938100809167006A
:1000A0008093820080916B008093830080916F0029
:1000B0008093840080917300809385008091770005
:1000C000809386000E94E1020E94240380918700B1
:1000D00080938100809188008093820080918900C4
:1000E0008093830080918A008093840080918B00AC
:1000F0008093850080918C008093860008951F92E4
:100100000F920FB60F9211242F933F934F935F934B
:100110006F937F938F939F93AF93BF93EF93FF93CF
:1001200081B190E0887F9070803A910531F1813AF9
:1001300091055CF48836910509F441C08038910539
:1001400089F080369105F1F50AC0883B910521F1CF
:10015000883C9105A1F1883A9105A1F511C0109252
:1001600060002DC09091600083B1E92FF0E0EF575F
:10017000FF4F8083963040F519C00E9443001FC096
:100180008091810083B986B7806C86BF86B786BFB1
:1001900081E08093600018C0909160009630A0F4D8
:1001A000E92FF0E0EF57FF4F808183B986B7806C6D
:1001B00086BF86B786BF9F5F9093600005C086B7F5
:1001C000806C86BF86B786BFFF91EF91BF91AF91DC
:1001D0009F918F917F916F915F914F913F912F915F
:1001E0000F900FBE0F901F90189586B18B6886B93F
:1001F00087B1806687B987B190916100892B87B9F3
:10020000089583E0809362001092610087B1807E40
:1002100087B9369A0895E82FF0E0EE0FFF1FEE0F32
:10022000FF1FE60FF11DED59FF4F80810895E82F64
:10023000F0E0EE0FFF1FEE0FFF1FE60FF11DED596F
:10024000FF4F408308950E9401018091620088233E
:10025000E1F7909163009695809177008695282F1D
:1002600030E0290F311D2055304037FF03C0309555
:1002700021953F4F722FE4E6F0E063E051E042E069
:10028000A4E09481969580818695282F30E0290FEF
:10029000311D2055304037FF03C0309521953F4F29
:1002A000271748F45A2F541B442319F0722F642F38
:1002B00002C0722F66E0349641504D3F11F76093B3
:1002C0007D0050937E00563019F410927E0050E06D
:1002D000852F08951F920F920FB60F9211242F931E
:1002E0008F939F93EF93FF9380916200833041F54A
:1002F00020917B00243000F585B190916100E92FB9
:10030000F0E0EE0FFF1FEE0FFF1FE20FF11DED59A2
:10031000FF4F8083963030F49F5F9093610087B1E8
:100320008F5F07C02F5F20937B001092610087B121
:10033000807E87B9369A04C010927B0010926200CA
:10034000FF91EF919F918F912F910F900FBE0F9082
:100350001F9018950E94B4010E94F50078940E94A5
:1003600001010E943E00FFCF83B7856083BF89B73C
:10037000816089BF08951F920F920FB60F921124CA
:100380002F933F934F935F936F937F938F939F939D
:10039000AF93BF93EF93FF930E940101FF91EF9101
:1003A000BF91AF919F918F917F916F915F914F918D
:1003B0003F912F910F900FBE0F901F90189590E0D6
:1003C000FC01EE0FFF1FE80FF91FE60FF11DE357C9
:1003D000FF4F80810895262F22952F7030E06F7097
:1003E000F901EE0FFF1FE20FF31FE60FF11DE357B8
:1003F000FF4F9081982B9083089590E0FC01EE0FC1
:10040000FF1FE80FF91FE60FF11DEA56FF4F80812D
:100410000895262F22952F7030E06F70F901EE0FAE
:10042000FF1FE20FF31FE60FF11DEA56FF4F908109
:10043000982B90830895863008F086500895982F61
:100440008055833158F480919100846080939100AD
:1004500080919A00846080939A0008959754933114
:1004600028F48091920084608093920080919A0099
:10047000846080939A0080919B00846080939B00AD
:1004800008958754833180F4862F8754833130F464
:100490008091910088608093910028C080918E00A7
:1004A000846080938E0005C080919800886080935E
:1004B00098008091970084608093970080919A00C3
:1004C000886080939A006754633130F480918E0085
:1004D000816080938E0005C0809196008860809333
:1004E00096008091970081608093970080919A0098
:1004F000886080939A000895982F8055833158F42E
:100500008091910081608093910080919A00816038
:1005100080939A0008959754933178F480919000D5
:100520008160809390008091990081608093990010
:1005300080919A00816080939A0008958754833156
:1005400080F4862F8754833130F48091910082604B
:100550008093910028C080919400816080939400E2
:1005600005C080919C00826080939C0080919D00DA
:10057000816080939D0080919A00826080939A00B0
:100580006754633130F480919400846080939400C8
:1005900005C080919E00826080939E0080919D00A6
:1005A000846080939D0080919A00826080939A007D
:1005B0000895109287001092880008950E942301E8
:1005C00008950F931F930E94010110917E00812FC7
:1005D00060E00E940B010E941F02110F163008F00C
:1005E0001650812F60E00E940B01082F110F16306A
:1005F00008F01650812F60E00E940B01682F802FB9
:100600000E944102110F163008F01650812F60E051
:100610000E940B010E947C02110F163008F0165048
:10062000812F60E00E940B01082F812F880F8630F8
:1006300008F0865060E00E940B01682F802F0E9416
:100640009E021F910F9108950E94E10280919100F6
:1006500090E09C012470307081FF07C0232B39F497
:1006600080918E0082FF09C002C0232B11F084E02C
:1006700007C08091940082FF02C082E001C085E043
:0A068000809387000895F894FFCFDF
:00000001FF
