:100000000C942A000C9447000C9447000C94470071
:100010000C9447000C9447000C9447000C94470044
:100020000C9447000C94D6010C9447000C942F01BB
:100030000C9447000C9401010C9447000C94470069
:100040000C9447000C9447000C9447000C94470014
:100050000C94470011241FBECFE5D4E0DEBFCDBF16
:1000600010E0A0E6B0E0E2ECF4E002C005900D92F2
:10007000A236B107D9F710E0A2E6B0E001C01D92A8
:10008000AC3BB107E1F70E94C7010C945F020C94EE
:10009000000080B1816480B90895813039F08130E9
:1000A00018F0823051F405C084EE01C084EC86BFA4
:1000B00004C084E986BF80E0089506B607FEFDCF40
:1000C00081B1887F08950F931F93CF93DF93082FFB
:1000D000000F10E01F5F163019F42FEF30E02BC037
:1000E00080E00E944D008833A9F3883011F0803100
:1000F000E1F403B981E00E944D00803259F3883366
:1001000049F3883191F4C2E6D0E007C0219680E03F
:10011000C836D80711F411E009C0888183B981E09D
:100120000E944D00883291F3D5CF1FEF82E00E94EC
:100130004D00212F30E0C901DF91CF911F910F9128
:100140000895FF920F931F93CF93DF93F82EFF0C28
:1001500081E0F82A00E00F5F063019F42FEF30E05D
:1001600039C080E00E944D008833A9F3883011F037
:10017000803151F5F3B881E00E944D00883459F385
:10018000883349F3803401F5C0E0D0E007C0CE01E8
:100190008F5F182F2196C530D10559F081E00E945C
:1001A0004D0093B1FE01EE59FF4F9083803579F3F6
:1001B000D2CF81E00E944D0083B1E12FF0E0EE59F3
:1001C000FF4F808311E001C01FEF82E00E944D00CD
:1001D000212F30E0C901DF91CF911F910F91FF9046
:1001E00008958FE089B910BC86E880BD88ED8AB992
:1001F00082E08BB912BA089582958F7008958F703E
:1002000008951F920F920FB60F92112412BA0F90F9
:100210000FBE0F901F901895582F5D9BFECF80E268
:1002200082BB80E98CB95D9BFECF80E282BB640F0C
:100230006CB9252F392FC901FC0190E020E206C0DE
:100240005D9BFECF22BB81918CB99F5F9417C0F359
:100250005D9BFECF80E282BB80E88CB908951F923F
:100260000F920FB60F9211242F933F934F935F93EA
:100270006F937F938F939F93AF93BF93EF93FF936E
:100280002CB12093B00080916B0090916C00813074
:10029000910599F0823091051CF4892B41F062C0E0
:1002A0008230910521F1039709F05CC036C02A37EE
:1002B00009F05CC081E090E015C0822F82958F70BC
:1002C00080936900822F8F7080936A00809168000C
:1002D000E82FF0E0EA54FF4F20838F5F809368009F
:1002E00082E090E090936C0080936B003FC090910F
:1002F000680080916A00E92FF0E02F7B981731F4B5
:10030000EA54FF4F208383E090E0ECCFEA54FF4FA4
:1003100020839F5F9093680029C02E37E1F480917D
:10032000B600809362008091B70080936300809153
:10033000B800809364008091B9008093650080913B
:10034000BA00809366008091BB0080936700809123
:1003500060000E94630010926C0010926B0010927B
:10036000680004C010926C0010926B00FF91EF9136
:10037000BF91AF919F918F917F916F915F914F91BD
:100380003F912F910F900FBE0F901F9018950E94D4
:10039000CF010E9449000E94F1007894FFCF83B7FB
:1003A000856083BF89B7816089BF08951F920F92CE
:1003B0000FB60F9211242F933F934F935F936F9338
:1003C0007F938F939F93AF93BF93EF93FF9380910E
:1003D0007500909176008230910509F447C0833012
:1003E000910534F4009761F0019709F053C014C0EF
:1003F0008330910509F452C0049709F04BC042C004
:1004000081E08093620082E00E946300892B09F4FE
:1004100045C081E090E025C082E00E94A100892BC8
:10042000E9F18091620080936F0080916300809376
:1004300070008091640080937100809165008093CA
:1004400072008091660080937300809167008093B2
:1004500074008FE690E060E746E00E940C0182E0C5
:1004600090E0909376008093750018C081E00E9420
:10047000A100892B79F080916200813059F483E0EA
:1004800090E0EFCF82E00E94A100892B39F081E05B
:100490000E9463001092760010927500FF91EF9118
:1004A000BF91AF919F918F917F916F915F914F918C
:1004B0003F912F910F900FBE0F901F901895F894B9
:0204C000FFCF6C
:0204C200010037
:00000001FF
