:100000000C942A000C943C000C943C000C943C0092
:100010000C943C000C943C000C943C000C943C0070
:100020000C943C000C943C000C943C000C943C0060
:100030000C943C000C943C000C94C1000C943C00CB
:100040000C943C000C943C000C943C000C943C0040
:100050000C943C0011241FBECFE5D4E0DEBFCDBF21
:1000600010E0A0E6B0E001C01D92AD37B107E1F7A6
:100070000E94A7000C9401010C9400008FEF81BB3B
:1000800086B18B6886B987B1806687B987B1909150
:100090006000892B87B9089583E0809361001092F6
:1000A000600087B1807E87B9369A0895E82FF0E026
:1000B000EE0FFF1FEE0FFF1FE60FF11DEB59FF4F75
:1000C00080810895E82FF0E0EE0FFF1FEE0FFF1F75
:1000D000E60FF11DEB59FF4F408308950E944C003D
:1000E000809161008823E1F7909165009695809159
:1000F00079008695282F30E0290F311D2A53304092
:1001000037FF03C0309521953F4F722FE6E6F0E0B0
:1001100040E065E0542F5F5F9481969580818695DD
:10012000282F30E0290F311D2A53304037FF03C0FC
:10013000309521953F4F271718F442BB722F642F3B
:100140003496553011F0452FE5CF862F08950E9443
:100150003E0078940E944C002091660080916500DA
:1001600090E0820F911D20916700820F911D2091D8
:100170006800820F911D959587959595879582BB0F
:10018000FFCF1F920F920FB60F9211242F938F93D0
:100190009F93EF93FF9380916100833041F520910D
:1001A0006200243000F585B190916000E92FF0E005
:1001B000EE0FFF1FEE0FFF1FE20FF11DEB59FF4F78
:1001C0008083963030F49F5F9093600087B18F5F9B
:1001D00007C02F5F209362001092600087B1807E7D
:1001E00087B9369A04C01092620010926100FF91A4
:1001F000EF919F918F912F910F900FBE0F901F90B5
:060200001895F894FFCFF1
:00000001FF
