:100000000C942A000C943C000C943C000C943C0092
:100010000C943C000C943C000C943C000C943C0070
:100020000C943C000C9487010C943C000C943C0014
:100030000C943C000C943C000C943B010C943C0050
:100040000C943C000C946C000C943C000C943C0010
:100050000C943C0011241FBECFE5D4E0DEBFCDBF21
:1000600010E0A0E6B0E001C01D92A439B107E1F7AD
:100070000E946D010C94E9020C940000EFE6F0E0A0
:10008000E80FF11D80810895EFE6F0E0E80FF11D23
:100090006083089584E082B985E486BF08958091E5
:1000A00075008130C1F48091630080936F0080916E
:1000B000640080937000809165008093710080914E
:1000C0006600809372008091670080937300809136
:1000D00068008093740008951F920F920FB60F92DC
:1000E00011242F933F934F935F936F937F938F933D
:1000F0009F93AF93BF93EF93FF9381B190E0887F7D
:1001000090708838910549F1893891055CF48836FA
:100110009105E9F08038910501F18036910509F0EB
:100120006AC013C0883A910599F1893A91052CF477
:10013000803A910509F05FC022C0883B910559F1D2
:10014000883C910509F057C04DC01092600086B7F9
:10015000806C86BF86B78F7E53C0E0916000F0E070
:1001600083B1EB58FF4F808380916000863008F0A8
:1001700048C086B7806C86BF86B78F7E1CC086B7A6
:10018000806C86BF86B78F7E86BF0E944F0039C0C5
:100190001092600004C080916000853098F4E09176
:1001A0006000F0E0E159FF4F808183B986B78F7E10
:1001B00086BF86B7806C86BF809160008F5F80931A
:1001C00060001FC0E0916000F0E0E159FF4F8081C6
:1001D00083B986B78F7A86BF86B7806886BF10924C
:1001E00060000FC086B7806C86BF86B78F7E86BFE3
:1001F0000E941E0106C086B78F7A86BF86B78068C8
:1002000086BFFF91EF91BF91AF919F918F917F91A9
:100210006F915F914F913F912F910F900FBE0F9073
:100220001F90189586B18B6886B987B1806687B9AB
:1002300087B190916100892B87B908958091620000
:10024000833061F083E08093620086B78B7F86BF46
:100250001092610087B1807E87B9369A0895E3E6EF
:10026000F0E0E80FF11D80810895E3E6F0E0E80F8B
:10027000F11D608308951F920F920FB60F92112403
:100280008F939F93EF93FF93809162008330E1F40B
:1002900085B190916100E92FF0E0ED59FF4F808327
:1002A000963040F49F5F9093610087B18F5F87B96C
:1002B000369A0AC01092610087B1807E87B9109289
:1002C000620086B7846086BFFF91EF919F918F9106
:1002D0000F900FBE0F901F9018950E9412017894F6
:1002E0000E941E010E944A008FEF87BB10926C0093
:1002F0000E947F0281E061E00E94AB0188BBF8CFE1
:1003000083B7856083BF89B7816089BF08951F92D5
:100310000F920FB60F9211242F933F934F935F9339
:100320006F937F938F939F93AF93BF93EF93FF93BD
:100330000E941E01FF91EF91BF91AF919F918F910C
:100340007F916F915F914F913F912F910F900FBED1
:100350000F901F90189590E0FC01EE0FFF1FE80F23
:10036000F91FE60FF11DEE57FF4F80810895262FEC
:1003700022952F7030E06F70F901EE0FFF1FE20F32
:10038000F31FE60FF11DEE57FF4F9081982B9083DE
:10039000089590E0FC01EE0FFF1FE80FF91FE60F34
:1003A000F11DE557FF4F80810895262F22952F706C
:1003B00030E06F70F901EE0FFF1FE20FF31FE60F41
:1003C000F11DE557FF4F9081982B9083089586305B
:1003D00008F080E00895982F8A548F3158F4809166
:1003E000860084608093860080918F008460809373
:1003F0008F000895913F28F080918700846080935A
:10040000870080918F00846080938F00809190009E
:10041000846080939000089581548F3118F0615466
:100420006F3158F4809186008860809386008091B7
:100430008F00886080938F00089580918D00886080
:1004400080938D0090918C0020918F0080918B0083
:10045000886080938B00956090938C002860209337
:100460008F000895982F8A548F3158F48091860018
:1004700081608093860080918F00816080938F00DF
:100480000895913F78F08091850081608093850088
:1004900080918E00816080938E0080918F008160BA
:1004A00080938F00089581548F3118F061546F311B
:1004B00058F48091860082608093860080918F003E
:1004C000826080938F000895809191008260809374
:1004D00091009091920020918F0080919300826012
:1004E00080939300956090939200226020938F00F8
:1004F000089510927B0010927C00089508951F9338
:1005000080916C0080938100109286000E942F01E0
:100510000E94EB01809181008F5F863008F080E0BF
:10052000809381000E942F01182F809181008F5F9E
:10053000863008F080E0809381000E942F01682FB0
:10054000812F0E940C02809181008F5F863008F01D
:1005500080E0809381000E942F010E9432028091EE
:1005600081008F5F863008F080E0809381000E94D8
:100570002F01182F809181008F5F863008F080E076
:10058000809381000E942F01682F812F0E945302C7
:100590001F9108950E947F028091860090E09C0147
:1005A0002470307081FF07C0232B39F480918300C1
:1005B00082FF09C002C0232B11F084E007C08091A4
:1005C000890082FF02C082E001C085E080937B0049
:0605D0000895F894FFCF2E
:00000001FF
