:100000000C9454030C9471030C9471030C947103BD
:100010000C9471030C9471030C9471030C94710390
:100020000C94CD030C9471030C9471030C94710324
:100030000C9471030C9471030C9471030C94710370
:100040000C9471030C946B070C9471030C94710362
:100050000C9471038200BE00030264008700D70085
:100060006400870040018200BE0003026400870034
:10007000D700640087004001640087005E016400CF
:1000800087005E01640087005E01640087005E01F6
:10009000640087005E01640087005E015E015E010E
:1000A0005E015E015E015E015E015E015E015E0158
:1000B0005E015E015E015E015E015E015E015E0148
:1000C0008200BE00030264008700D700640087003E
:1000D00040018200BE00030264008700D700640074
:1000E000870040011E00BE00030264008700D700A5
:1000F0001E00870040018200BE0003021E00870030
:10010000D7006400870040011E00870003028200C0
:10011000BE00D7001E0087007C0164008700030238
:100120001E00BE00D700640087007C0164008700C9
:1001300003028200BE00D700640087007C016400D7
:10014000870003028200BE00D700640087007C01A4
:100150006400870003021E00BE00D7006400870011
:100160007C011E00870003028200BE00D7001E0033
:1001700087007C018200BE0003021E008700D700BA
:100180006400870040011E00BE0003026400870077
:10019000D7001E00870040018200BE0003026400F9
:1001A0008700D7006400870040018200BE00030280
:1001B00064008700D7006400870040011E00BE0075
:1001C000030264008700D7001E0087004001820000
:1001D000BE0003021E008700D700640087004001B4
:1001E0001E008700520264008700D7001E008700AF
:1001F00052028200BE0003021E0087005202640009
:100200008700400182008700520264008700D70007
:100210006400870052028200BE0003028200870051
:1002200052026400870040018200870052021E00D3
:100230008700D7006400870052021E00BE00030240
:100240008200870052021E00870040018200870062
:10025000EE001E00BE00030264008700EE001E00D8
:100260008700400182008700EE001E008700D70053
:1002700082008700EE008200BE0003026400870057
:10028000EE0064008700400182008700EE006400F9
:100290008700D7001E008700EE008200BE00030228
:1002A0001E008700EE006400870040011E008700EA
:1002B000EE0064008700D7001E0087004001820026
:1002C000BE0003021E008700D700640087004001C3
:1002D0001E00BE00030264008700D7008200BE003B
:1002E000030264008700D700640087004001820099
:1002F000BE00030264008700D7006400870040014D
:100300001E00BE00030264008700D7001E008700A5
:1003100040018200BE0003021E008700D700640077
:10032000870040011E008700EE0064008700D700B0
:100330001E008700EE008200BE0003021E00870040
:10034000EE0064008700400182008700EE00640038
:100350008700D70064008700EE008200BE00030221
:1003600082008700EE006400870040018200870061
:10037000EE001E008700D70064008700EE001E001C
:10038000BE00030282008700EE001E0087004001CD
:100390008200870052021E0087004001640087002F
:1003A00052021E008700D7008200870052021E0002
:1003B000BE000302820087005202640087004001F1
:1003C00064008700520264008700D7008200870023
:1003D00052028200BE0003021E0087005202640027
:1003E000870040011E008700520264008700D7008A
:1003F0001E00870052028200BE0003021E0087001A
:10040000D7006400870040011E00BE0003026400A4
:100410008700D7001E00870040018200BE00030253
:100420008200BE00030264008700D70064008700DA
:1004300040018200BE00030264008700D700640010
:10044000870040011E00BE00030264008700D70041
:100450001E00870040018200BE0003021E008700CC
:10046000D7006400870040011E00BE000302640044
:100470008700B4001E00870040018200BE00E0013A
:100480001E008700D7006400870032018200BE0092
:10049000030264008700B40064008700400182000A
:1004A000BE00E00164008700D700640087003201CD
:1004B0008200BE0003021E008700B40064008700B3
:1004C00040011E00BE00E00164008700D7001E004E
:1004D000870032018200BE0003021E008700D700A1
:1004E0006400870040011E00BE0003026400870014
:1004F000D7001E00870040018200BE000302640096
:100500008700D7006400870040018200BE0003021C
:1005100064008700D7006400870040018200BE00AD
:10052000030264008700D700640087004001820056
:10053000BE00030264008700D7006400870040010A
:100540001E00BE00030264008700D7001E00870063
:1005500040018200BE0003021E008700D700640035
:10056000870040011E00BE00030264008700FA00FD
:100570001E00870040018200BE0026021E00870088
:10058000D7006400870078018200BE000302640087
:100590008700FA006400870040018200BE00260246
:1005A00064008700D7006400870078018200BE00E5
:1005B00003021E008700FA006400870040011E004D
:1005C000BE00260264008700D7001E008700780165
:1005D0008200BE0003021E008700D700640087006F
:1005E00040011E00BE00030264008700D7001E0009
:1005F000870040018200BE00030264008700D7002C
:100600006400870040018200BE000302640087008E
:10061000D7006400870040010000000000000000D7
:1006200000000000000000000000000000000000CA
:1006300000000000000000000000000000000000BA
:1006400000000000000000000000000000000000AA
:10065000000000000000000000000000000000009A
:10066000000000000000000000000000000000008A
:10067000000000000000000000000000000000007A
:10068000000000000000000000000000000000006A
:10069000000000000000000000000000000000005A
:1006A000000000000000000011241FBECFE5D4E0D0
:1006B000DEBFCDBF10E0A0E6B0E0E2E2F0E102C0B4
:1006C00005900D92A037B107D9F710E0A0E7B0E090
:1006D00001C01D92A139B107E1F70E9405080C94F1
:1006E0000F080C94000080918F009091900086304C
:1006F00091052CF006979093900080938F00809145
:10070000870090918800863091052CF00697909391
:10071000880080938700089580916B0090916C0011
:100720009093900080938F0001969093880080931F
:1007300087000E9473031092710010927000109253
:10074000830010928200089580EF8FBD82E18EBDFC
:1007500084E089BF87E594E097BD86BDE4E5F0E0DD
:10076000859194919BBD8ABDEAE5F0E085919491D5
:1007700099BD88BD8FE381BB8091700088BB80915B
:100780006B0090916C009093900080938F00019685
:10079000909388008093870008951F920F920FB660
:1007A0000F9211242F933F934F935F936F937F93F7
:1007B0008F939F93AF93BF93CF93DF93EF93FF9369
:1007C00080917000909171000196909371008093D8
:1007D0007000099721F410927100109270008091BE
:1007E000700082BB8091820090918300019690936B
:1007F0008300809382000397A1F4109283001092EB
:10080000820080918F0090919000029690939000CA
:1008100080938F00019690938800809387000E94B8
:100820007303C0916100D0916200C130D10509F01D
:10083000A2C18091820090918300029709F09BC130
:1008400040918F00509190004330510509F042C013
:10085000209163003091640084E290E0289FB00111
:10086000299F700D389F700D1124FB01E659FF4F31
:100870004591549120917E0030917F0088E290E074
:10088000F901E89F9001E99F300DF89F300D112488
:10089000E0916B00F0916C00EE0FFF1FEE58FF4FE0
:1008A00080819181280F391F420F531F5BBD4ABDC4
:1008B0008091870090918800FC01EE0FFF1FE80FE8
:1008C000F91FEE0FFF1FE60FF71FE85AFF4F859144
:1008D0009491C8C0A0918700B09188004430510520
:1008E00009F03EC0209163003091640084E290E002
:1008F000289FB001299F700D389F700D1124FB01B6
:10090000E059FF4F4591549120917E0030917F0036
:1009100088E290E0F901E89F9001E99F300DF89F8F
:10092000300D1124E0916B00F0916C00EE0FFF1F71
:10093000EE58FF4F80819181280F391F240F351FFA
:100940003BBD2ABDFD01EE0FFF1FEA0FFB1FEE0F9F
:10095000FF1FE60FF71FE85AFF4F8591949147C19B
:10096000A330B10509F03DC02091630030916400CF
:1009700084E290E0B901689F9001699F300D789FF3
:10098000300D1124FA01EE0FFF1FE40FF51FEE0FDB
:10099000FF1FE20FF31FE85AFF4F859194919BBD13
:1009A0008ABDF901E659FF4F4591549120917E008F
:1009B00030917F0088E290E0F901E89F9001E99F83
:1009C000300DF89F300D1124E0916B00F0916C0018
:1009D000EE0FFF1FEE58FF4F80819181280F391FC6
:1009E000C7C04115510509F042C020916300309104
:1009F000640084E290E0289FB001299F700D389F29
:100A0000700D1124FB01E85AFF4F4591549120913C
:100A10007E0030917F0088ED9FEFF901E89F900103
:100A2000E99F300DF89F300D1124E0916B00F0919B
:100A30006C00EE0FFF1FEE58FF4F80819181281B45
:100A4000390B420F531F5BBD4ABDFD01EE0FFF1F67
:100A5000EA0FFB1FEE0FFF1FE60FF71FE85AFF4FCD
:100A600085919491280F391F39BD28BDC2C04130EE
:100A7000510509F03EC0209163003091640084E28A
:100A800090E0289FB001299F700D389F700D1124B0
:100A9000FB01E25AFF4F4591549120917E00309125
:100AA0007F0088ED9FEFF901E89F9001E99F300DED
:100AB000F89F300D1124E0916B00F0916C00EE0F67
:100AC000FF1FEE58FF4F80819181281B390B240FA7
:100AD000351F3BBD2ABDFD01EE0FFF1FEA0FFB1FB7
:100AE000EE0FFF1FE60FF71FE85AFF4F8591949115
:100AF0007EC0AB2B09F07DC0209163003091640073
:100B000084E290E0B901689F9001699F300D789F61
:100B1000300D1124FA01EE0FFF1FE40FF51FEE0F49
:100B2000FF1FE20FF31FE85AFF4F859194919BBD81
:100B30008ABDF901E85AFF4F4591549120917E00FA
:100B400030917F0088ED9FEFF901E89F9001E99FC8
:100B5000300DF89F300D1124E0916B00F0916C0086
:100B6000EE0FFF1FEE58FF4F80819181281B390B3C
:100B7000240F351F79CF209163003091640084E207
:100B800090E0289FA001299F500D389F500D1124FF
:100B90002091820030918300220F331F80918F00BB
:100BA00090919000FC01EE0FFF1FE80FF91FEE0F70
:100BB000FF1FE40FF51FE20FF31FEC5AFF4F859163
:100BC00094919BBD8ABDF901E40FF51F2091870028
:100BD00030918800C901880F991F820F931F880FD9
:100BE000991FE80FF91FEC5AFF4F8591949199BD19
:100BF00088BD2091690030916A00809167009091D2
:100C000068002817390709F0CFC0209721F481E048
:100C100080936000C3C0C130D105B9F41092600068
:100C20008BE190E09093680080936700809163006F
:100C300090916400019690936400809363000997FB
:100C40000CF4ACC083E090E0A5C0C230D105B1F592
:100C50001092600084EB90E09093680080936700AE
:100C6000809163009091640001969093640080935A
:100C7000630042970CF492C01092640010926300DB
:100C8000109262001092610040916B0050916C00D4
:100C9000CA01059690936C0080936B0020916D00C3
:100CA00030916E002B5F3F4F30936E0020936D00AC
:100CB00006970CF43FC04150504038C0C330D105B6
:100CC00009F044C01092600084EB90E090936800BB
:100CD00080936700809163009091640001969093E7
:100CE0006400809363004B970CF458C0109264002A
:100CF00010926300109262001092610040916B00AC
:100D000050916C00CA01019690936C0080936B0027
:100D100020916D0030916E002F5F3F4F30936E0039
:100D200020936D00069734F04550504050936C006E
:100D300040936B002630310534F02650304030931C
:100D40006E0020936D000E948C0328C0C430D10532
:100D500081F410926000809163009091640001968C
:100D600090936400809363008297C4F08BE190E0DD
:100D700011C0259799F410926000809163009091C2
:100D8000640001969093640080936300899734F027
:100D900082E290E0909364008093630081E090E0B1
:100DA00090936A00809369008091690090916A0035
:100DB000019690936A0080936900FF91EF91DF9113
:100DC000CF91BF91AF919F918F917F916F915F91E3
:100DD0004F913F912F910F900FBE0F901F9018953C
:100DE00082E082B985E486BF08951F9380918900CF
:100DF00082958F7010918A0020916D0030916E0065
:100E000030936C0020936B00843081F1853030F496
:100E1000823051F0833009F047C00BC0853079F142
:100E2000863009F041C038C030936E0020936D00C9
:100E300012C030936E0020936D00C9010396909309
:100E40006C0080936B00069734F023503040309351
:100E50006C0020936B000E948C0381E090E09093E3
:100E600062008093610083E090E011C083E090E035
:100E7000909362008093610082E190E008C082E07C
:100E800090E0909362008093610089E090E09093FD
:100E900064008093630008C01092620010926100A9
:100EA0001092640010926300113051F0113018F06C
:100EB000123079F408C010927F0010927E0009C0B1
:100EC00081E090E002C08FEF9FEF90937F008093CE
:100ED0007E001F9108951F920F920FB60F9211245A
:100EE0002F933F934F935F936F937F938F939F9332
:100EF000AF93BF93EF93FF9381B190E0887F9070A1
:100F00008838910529F18938910564F4883691056E
:100F100009F45EC080389105D9F08036910509F05A
:100F20005DC013C0883A910569F1893A91052CF4A6
:100F3000803A910509F052C01CC0883B910579F1B7
:100F4000883C910509F04AC043C01092860040C019
:100F50009091860083B1E92FF0E0E757FF4F80833F
:100F6000963008F041C086B7806C86BF86B78F7E0A
:100F700020C086B7806C86BF86B78F7E86BF0E94F2
:100F8000F50632C08091600083B986B78F7E86BF38
:100F900086B7806C86BF81E08093860025C09091E3
:100FA0008600953058F413B886B78F7E86BF86B713
:100FB000806C86BF9F5F9093860016C013B886B77B
:100FC0008F7A86BF86B7806886BF109286000CC075
:100FD00086B7806C86BF86B78F7E05C086B78F7A4E
:100FE00086BF86B7806886BFFF91EF91BF91AF91B2
:100FF0009F918F917F916F915F914F913F912F9131
:101000000F900FBE0F901F9018950E94A40382E0CE
:1010100082B985E486BF78948FEF8ABBFFCFF894BE
:02102000FFCF00
:10102200010100030057041B00010001000300003E
:00000001FF
